{
  "contractName": "Voting",
  "abi": [
    {
      "anonymous": false,
      "inputs": [
        {
          "indexed": false,
          "internalType": "string",
          "name": "name",
          "type": "string"
        },
        {
          "indexed": false,
          "internalType": "string",
          "name": "party",
          "type": "string"
        },
        {
          "indexed": false,
          "internalType": "string",
          "name": "description",
          "type": "string"
        }
      ],
      "name": "CandidateAdded",
      "type": "event"
    },
    {
      "anonymous": false,
      "inputs": [
        {
          "indexed": false,
          "internalType": "uint256",
          "name": "candidateId",
          "type": "uint256"
        },
        {
          "indexed": false,
          "internalType": "address",
          "name": "voter",
          "type": "address"
        }
      ],
      "name": "VoteCasted",
      "type": "event"
    },
    {
      "inputs": [],
      "name": "candidateCount",
      "outputs": [
        {
          "internalType": "uint256",
          "name": "",
          "type": "uint256"
        }
      ],
      "stateMutability": "view",
      "type": "function"
    },
    {
      "inputs": [
        {
          "internalType": "uint256",
          "name": "",
          "type": "uint256"
        }
      ],
      "name": "candidates",
      "outputs": [
        {
          "internalType": "string",
          "name": "name",
          "type": "string"
        },
        {
          "internalType": "string",
          "name": "party",
          "type": "string"
        },
        {
          "internalType": "string",
          "name": "description",
          "type": "string"
        },
        {
          "internalType": "uint256",
          "name": "voteCount",
          "type": "uint256"
        }
      ],
      "stateMutability": "view",
      "type": "function"
    },
    {
      "inputs": [
        {
          "internalType": "address",
          "name": "",
          "type": "address"
        }
      ],
      "name": "voters",
      "outputs": [
        {
          "internalType": "bool",
          "name": "",
          "type": "bool"
        }
      ],
      "stateMutability": "view",
      "type": "function"
    },
    {
      "inputs": [
        {
          "internalType": "string",
          "name": "_name",
          "type": "string"
        },
        {
          "internalType": "string",
          "name": "_party",
          "type": "string"
        },
        {
          "internalType": "string",
          "name": "_description",
          "type": "string"
        }
      ],
      "name": "addCandidate",
      "outputs": [],
      "stateMutability": "nonpayable",
      "type": "function"
    },
    {
      "inputs": [
        {
          "internalType": "uint256",
          "name": "_candidateId",
          "type": "uint256"
        }
      ],
      "name": "vote",
      "outputs": [],
      "stateMutability": "nonpayable",
      "type": "function"
    },
    {
      "inputs": [
        {
          "internalType": "uint256",
          "name": "_candidateId",
          "type": "uint256"
        }
      ],
      "name": "getCandidate",
      "outputs": [
        {
          "components": [
            {
              "internalType": "string",
              "name": "name",
              "type": "string"
            },
            {
              "internalType": "string",
              "name": "party",
              "type": "string"
            },
            {
              "internalType": "string",
              "name": "description",
              "type": "string"
            },
            {
              "internalType": "uint256",
              "name": "voteCount",
              "type": "uint256"
            }
          ],
          "internalType": "struct Voting.Candidate",
          "name": "",
          "type": "tuple"
        }
      ],
      "stateMutability": "view",
      "type": "function"
    }
  ],
  "bytecode": "0x608060405234801561000f575f80fd5b506111828061001d5f395ff3fe608060405234801561000f575f80fd5b5060043610610060575f3560e01c80630121b93f146100645780633477ee2e1461008057806335b8e820146100b3578063a3ec138d146100e3578063a9a981a314610113578063ad71f8dc14610131575b5f80fd5b61007e6004803603810190610079919061081d565b61014d565b005b61009a6004803603810190610095919061081d565b6102d4565b6040516100aa94939291906108e1565b60405180910390f35b6100cd60048036038101906100c8919061081d565b610491565b6040516100da91906109fe565b60405180910390f35b6100fd60048036038101906100f89190610a78565b6106b8565b60405161010a9190610abd565b60405180910390f35b61011b6106d5565b6040516101289190610ad6565b60405180910390f35b61014b60048036038101906101469190610c1b565b6106db565b005b60025f3373ffffffffffffffffffffffffffffffffffffffff1673ffffffffffffffffffffffffffffffffffffffff1681526020019081526020015f205f9054906101000a900460ff16156101d7576040517f08c379a00000000000000000000000000000000000000000000000000000000081526004016101ce90610d09565b60405180910390fd5b600154811061021b576040517f08c379a000000000000000000000000000000000000000000000000000000000815260040161021290610d71565b60405180910390fd5b5f808281526020019081526020015f206003015f81548092919061023e90610dbc565b9190505550600160025f3373ffffffffffffffffffffffffffffffffffffffff1673ffffffffffffffffffffffffffffffffffffffff1681526020019081526020015f205f6101000a81548160ff0219169083151502179055507fd8d46ecf72f6103ff400e47d1b5fdfe248d4ca34a4acd39f63fbe903c8f7e7bd81336040516102c9929190610e12565b60405180910390a150565b5f602052805f5260405f205f91509050805f0180546102f290610e66565b80601f016020809104026020016040519081016040528092919081815260200182805461031e90610e66565b80156103695780601f1061034057610100808354040283529160200191610369565b820191905f5260205f20905b81548152906001019060200180831161034c57829003601f168201915b50505050509080600101805461037e90610e66565b80601f01602080910402602001604051908101604052809291908181526020018280546103aa90610e66565b80156103f55780601f106103cc576101008083540402835291602001916103f5565b820191905f5260205f20905b8154815290600101906020018083116103d857829003601f168201915b50505050509080600201805461040a90610e66565b80601f016020809104026020016040519081016040528092919081815260200182805461043690610e66565b80156104815780601f1061045857610100808354040283529160200191610481565b820191905f5260205f20905b81548152906001019060200180831161046457829003601f168201915b5050505050908060030154905084565b6104996107b2565b60015482106104dd576040517f08c379a00000000000000000000000000000000000000000000000000000000081526004016104d490610d71565b60405180910390fd5b5f808381526020019081526020015f206040518060800160405290815f8201805461050790610e66565b80601f016020809104026020016040519081016040528092919081815260200182805461053390610e66565b801561057e5780601f106105555761010080835404028352916020019161057e565b820191905f5260205f20905b81548152906001019060200180831161056157829003601f168201915b5050505050815260200160018201805461059790610e66565b80601f01602080910402602001604051908101604052809291908181526020018280546105c390610e66565b801561060e5780601f106105e55761010080835404028352916020019161060e565b820191905f5260205f20905b8154815290600101906020018083116105f157829003601f168201915b5050505050815260200160028201805461062790610e66565b80601f016020809104026020016040519081016040528092919081815260200182805461065390610e66565b801561069e5780601f106106755761010080835404028352916020019161069e565b820191905f5260205f20905b81548152906001019060200180831161068157829003601f168201915b505050505081526020016003820154815250509050919050565b6002602052805f5260405f205f915054906101000a900460ff1681565b60015481565b60405180608001604052808481526020018381526020018281526020015f8152505f8060015481526020019081526020015f205f820151815f0190816107219190611033565b5060208201518160010190816107379190611033565b50604082015181600201908161074d9190611033565b50606082015181600301559050507fa620e116e8168f7281127a47ac04518b6fbd8b07cd150397e6e3e56127ce48cf83838360405161078e93929190611102565b60405180910390a160015f8154809291906107a890610dbc565b9190505550505050565b60405180608001604052806060815260200160608152602001606081526020015f81525090565b5f604051905090565b5f80fd5b5f80fd5b5f819050919050565b6107fc816107ea565b8114610806575f80fd5b50565b5f81359050610817816107f3565b92915050565b5f60208284031215610832576108316107e2565b5b5f61083f84828501610809565b91505092915050565b5f81519050919050565b5f82825260208201905092915050565b5f5b8381101561087f578082015181840152602081019050610864565b5f8484015250505050565b5f601f19601f8301169050919050565b5f6108a482610848565b6108ae8185610852565b93506108be818560208601610862565b6108c78161088a565b840191505092915050565b6108db816107ea565b82525050565b5f6080820190508181035f8301526108f9818761089a565b9050818103602083015261090d818661089a565b90508181036040830152610921818561089a565b905061093060608301846108d2565b95945050505050565b5f82825260208201905092915050565b5f61095382610848565b61095d8185610939565b935061096d818560208601610862565b6109768161088a565b840191505092915050565b61098a816107ea565b82525050565b5f608083015f8301518482035f8601526109aa8282610949565b915050602083015184820360208601526109c48282610949565b915050604083015184820360408601526109de8282610949565b91505060608301516109f36060860182610981565b508091505092915050565b5f6020820190508181035f830152610a168184610990565b905092915050565b5f73ffffffffffffffffffffffffffffffffffffffff82169050919050565b5f610a4782610a1e565b9050919050565b610a5781610a3d565b8114610a61575f80fd5b50565b5f81359050610a7281610a4e565b92915050565b5f60208284031215610a8d57610a8c6107e2565b5b5f610a9a84828501610a64565b91505092915050565b5f8115159050919050565b610ab781610aa3565b82525050565b5f602082019050610ad05f830184610aae565b92915050565b5f602082019050610ae95f8301846108d2565b92915050565b5f80fd5b5f80fd5b7f4e487b71000000000000000000000000000000000000000000000000000000005f52604160045260245ffd5b610b2d8261088a565b810181811067ffffffffffffffff82111715610b4c57610b4b610af7565b5b80604052505050565b5f610b5e6107d9565b9050610b6a8282610b24565b919050565b5f67ffffffffffffffff821115610b8957610b88610af7565b5b610b928261088a565b9050602081019050919050565b828183375f83830152505050565b5f610bbf610bba84610b6f565b610b55565b905082815260208101848484011115610bdb57610bda610af3565b5b610be6848285610b9f565b509392505050565b5f82601f830112610c0257610c01610aef565b5b8135610c12848260208601610bad565b91505092915050565b5f805f60608486031215610c3257610c316107e2565b5b5f84013567ffffffffffffffff811115610c4f57610c4e6107e6565b5b610c5b86828701610bee565b935050602084013567ffffffffffffffff811115610c7c57610c7b6107e6565b5b610c8886828701610bee565b925050604084013567ffffffffffffffff811115610ca957610ca86107e6565b5b610cb586828701610bee565b9150509250925092565b7f596f75206861766520616c726561647920766f7465642e0000000000000000005f82015250565b5f610cf3601783610852565b9150610cfe82610cbf565b602082019050919050565b5f6020820190508181035f830152610d2081610ce7565b9050919050565b7f496e76616c69642063616e6469646174652049442e00000000000000000000005f82015250565b5f610d5b601583610852565b9150610d6682610d27565b602082019050919050565b5f6020820190508181035f830152610d8881610d4f565b9050919050565b7f4e487b71000000000000000000000000000000000000000000000000000000005f52601160045260245ffd5b5f610dc6826107ea565b91507fffffffffffffffffffffffffffffffffffffffffffffffffffffffffffffffff8203610df857610df7610d8f565b5b600182019050919050565b610e0c81610a3d565b82525050565b5f604082019050610e255f8301856108d2565b610e326020830184610e03565b9392505050565b7f4e487b71000000000000000000000000000000000000000000000000000000005f52602260045260245ffd5b5f6002820490506001821680610e7d57607f821691505b602082108103610e9057610e8f610e39565b5b50919050565b5f819050815f5260205f209050919050565b5f6020601f8301049050919050565b5f82821b905092915050565b5f60088302610ef27fffffffffffffffffffffffffffffffffffffffffffffffffffffffffffffffff82610eb7565b610efc8683610eb7565b95508019841693508086168417925050509392505050565b5f819050919050565b5f610f37610f32610f2d846107ea565b610f14565b6107ea565b9050919050565b5f819050919050565b610f5083610f1d565b610f64610f5c82610f3e565b848454610ec3565b825550505050565b5f90565b610f78610f6c565b610f83818484610f47565b505050565b5b81811015610fa657610f9b5f82610f70565b600181019050610f89565b5050565b601f821115610feb57610fbc81610e96565b610fc584610ea8565b81016020851015610fd4578190505b610fe8610fe085610ea8565b830182610f88565b50505b505050565b5f82821c905092915050565b5f61100b5f1984600802610ff0565b1980831691505092915050565b5f6110238383610ffc565b9150826002028217905092915050565b61103c82610848565b67ffffffffffffffff81111561105557611054610af7565b5b61105f8254610e66565b61106a828285610faa565b5f60209050601f83116001811461109b575f8415611089578287015190505b6110938582611018565b8655506110fa565b601f1984166110a986610e96565b5f5b828110156110d0578489015182556001820191506020850194506020810190506110ab565b868310156110ed57848901516110e9601f891682610ffc565b8355505b6001600288020188555050505b505050505050565b5f6060820190508181035f83015261111a818661089a565b9050818103602083015261112e818561089a565b90508181036040830152611142818461089a565b905094935050505056fea2646970667358221220fbd47d3f3194cbccde338138666816cf5d5a274c1a890b83c6dedd9a2c501bf164736f6c63430008150033",
  "immutableReferences": {},
  "source": "// contracts/Voting.sol\r\n// SPDX-License-Identifier: MIT\r\npragma solidity ^0.8.0;\r\n\r\ncontract Voting {\r\n    struct Candidate {\r\n        string name;\r\n        string party;\r\n        string description;\r\n        uint256 voteCount;\r\n    }\r\n\r\n    mapping(uint256 => Candidate) public candidates;\r\n    uint256 public candidateCount;\r\n    mapping(address => bool) public voters;\r\n\r\n    event CandidateAdded(string name, string party, string description);\r\n    event VoteCasted(uint256 candidateId, address voter);\r\n\r\n    function addCandidate(string memory _name, string memory _party, string memory _description) public {\r\n        candidates[candidateCount] = Candidate(_name, _party, _description, 0);\r\n        emit CandidateAdded(_name, _party, _description);\r\n        candidateCount++;\r\n    }\r\n\r\n    function vote(uint256 _candidateId) public {\r\n        require(!voters[msg.sender], \"You have already voted.\");\r\n        require(_candidateId < candidateCount, \"Invalid candidate ID.\");\r\n\r\n        candidates[_candidateId].voteCount++;\r\n        voters[msg.sender] = true;\r\n        emit VoteCasted(_candidateId, msg.sender);\r\n    }\r\n\r\n    function getCandidate(uint256 _candidateId) public view returns (Candidate memory) {\r\n        require(_candidateId < candidateCount, \"Invalid candidate ID.\");\r\n        return candidates[_candidateId];\r\n    }\r\n}\r\n",
  "sourcePath": "C:\\Users\\ngawa\\OneDrive\\Desktop\\12220047 individual work\\contracts\\Voting.sol",
  "compiler": {
    "name": "solc",
    "version": "0.8.21+commit.d9974bed.Emscripten.clang"
  },
  "schemaVersion": "3.4.16",
  "updatedAt": "2024-11-05T14:13:35.960Z",
  "devdoc": {
    "kind": "dev",
    "methods": {},
    "version": 1
  },
  "userdoc": {
    "kind": "user",
    "methods": {},
    "version": 1
  }
}