{
  "contractName": "Voting",
  "abi": [
    {
      "inputs": [],
      "stateMutability": "nonpayable",
      "type": "constructor"
    },
    {
      "inputs": [
        {
          "internalType": "address",
          "name": "spender",
          "type": "address"
        },
        {
          "internalType": "uint256",
          "name": "allowance",
          "type": "uint256"
        },
        {
          "internalType": "uint256",
          "name": "needed",
          "type": "uint256"
        }
      ],
      "name": "ERC20InsufficientAllowance",
      "type": "error"
    },
    {
      "inputs": [
        {
          "internalType": "address",
          "name": "sender",
          "type": "address"
        },
        {
          "internalType": "uint256",
          "name": "balance",
          "type": "uint256"
        },
        {
          "internalType": "uint256",
          "name": "needed",
          "type": "uint256"
        }
      ],
      "name": "ERC20InsufficientBalance",
      "type": "error"
    },
    {
      "inputs": [
        {
          "internalType": "address",
          "name": "approver",
          "type": "address"
        }
      ],
      "name": "ERC20InvalidApprover",
      "type": "error"
    },
    {
      "inputs": [
        {
          "internalType": "address",
          "name": "receiver",
          "type": "address"
        }
      ],
      "name": "ERC20InvalidReceiver",
      "type": "error"
    },
    {
      "inputs": [
        {
          "internalType": "address",
          "name": "sender",
          "type": "address"
        }
      ],
      "name": "ERC20InvalidSender",
      "type": "error"
    },
    {
      "inputs": [
        {
          "internalType": "address",
          "name": "spender",
          "type": "address"
        }
      ],
      "name": "ERC20InvalidSpender",
      "type": "error"
    },
    {
      "inputs": [
        {
          "internalType": "address",
          "name": "owner",
          "type": "address"
        }
      ],
      "name": "OwnableInvalidOwner",
      "type": "error"
    },
    {
      "inputs": [
        {
          "internalType": "address",
          "name": "account",
          "type": "address"
        }
      ],
      "name": "OwnableUnauthorizedAccount",
      "type": "error"
    },
    {
      "anonymous": false,
      "inputs": [
        {
          "indexed": true,
          "internalType": "address",
          "name": "owner",
          "type": "address"
        },
        {
          "indexed": true,
          "internalType": "address",
          "name": "spender",
          "type": "address"
        },
        {
          "indexed": false,
          "internalType": "uint256",
          "name": "value",
          "type": "uint256"
        }
      ],
      "name": "Approval",
      "type": "event"
    },
    {
      "anonymous": false,
      "inputs": [
        {
          "indexed": false,
          "internalType": "string",
          "name": "name",
          "type": "string"
        },
        {
          "indexed": false,
          "internalType": "string",
          "name": "party",
          "type": "string"
        },
        {
          "indexed": false,
          "internalType": "string",
          "name": "description",
          "type": "string"
        }
      ],
      "name": "CandidateAdded",
      "type": "event"
    },
    {
      "anonymous": false,
      "inputs": [
        {
          "indexed": false,
          "internalType": "address",
          "name": "admin",
          "type": "address"
        },
        {
          "indexed": false,
          "internalType": "uint256",
          "name": "amount",
          "type": "uint256"
        }
      ],
      "name": "FundsWithdrawn",
      "type": "event"
    },
    {
      "anonymous": false,
      "inputs": [
        {
          "indexed": true,
          "internalType": "address",
          "name": "previousOwner",
          "type": "address"
        },
        {
          "indexed": true,
          "internalType": "address",
          "name": "newOwner",
          "type": "address"
        }
      ],
      "name": "OwnershipTransferred",
      "type": "event"
    },
    {
      "anonymous": false,
      "inputs": [
        {
          "indexed": true,
          "internalType": "address",
          "name": "from",
          "type": "address"
        },
        {
          "indexed": true,
          "internalType": "address",
          "name": "to",
          "type": "address"
        },
        {
          "indexed": false,
          "internalType": "uint256",
          "name": "value",
          "type": "uint256"
        }
      ],
      "name": "Transfer",
      "type": "event"
    },
    {
      "anonymous": false,
      "inputs": [
        {
          "indexed": false,
          "internalType": "uint256",
          "name": "candidateId",
          "type": "uint256"
        },
        {
          "indexed": false,
          "internalType": "address",
          "name": "voter",
          "type": "address"
        }
      ],
      "name": "VoteCasted",
      "type": "event"
    },
    {
      "anonymous": false,
      "inputs": [],
      "name": "VotingPaused",
      "type": "event"
    },
    {
      "anonymous": false,
      "inputs": [],
      "name": "VotingResumed",
      "type": "event"
    },
    {
      "inputs": [
        {
          "internalType": "address",
          "name": "owner",
          "type": "address"
        },
        {
          "internalType": "address",
          "name": "spender",
          "type": "address"
        }
      ],
      "name": "allowance",
      "outputs": [
        {
          "internalType": "uint256",
          "name": "",
          "type": "uint256"
        }
      ],
      "stateMutability": "view",
      "type": "function",
      "constant": true
    },
    {
      "inputs": [
        {
          "internalType": "address",
          "name": "spender",
          "type": "address"
        },
        {
          "internalType": "uint256",
          "name": "value",
          "type": "uint256"
        }
      ],
      "name": "approve",
      "outputs": [
        {
          "internalType": "bool",
          "name": "",
          "type": "bool"
        }
      ],
      "stateMutability": "nonpayable",
      "type": "function"
    },
    {
      "inputs": [
        {
          "internalType": "address",
          "name": "account",
          "type": "address"
        }
      ],
      "name": "balanceOf",
      "outputs": [
        {
          "internalType": "uint256",
          "name": "",
          "type": "uint256"
        }
      ],
      "stateMutability": "view",
      "type": "function",
      "constant": true
    },
    {
      "inputs": [],
      "name": "candidateCount",
      "outputs": [
        {
          "internalType": "uint256",
          "name": "",
          "type": "uint256"
        }
      ],
      "stateMutability": "view",
      "type": "function",
      "constant": true
    },
    {
      "inputs": [
        {
          "internalType": "uint256",
          "name": "",
          "type": "uint256"
        }
      ],
      "name": "candidates",
      "outputs": [
        {
          "internalType": "string",
          "name": "name",
          "type": "string"
        },
        {
          "internalType": "string",
          "name": "party",
          "type": "string"
        },
        {
          "internalType": "string",
          "name": "description",
          "type": "string"
        },
        {
          "internalType": "uint256",
          "name": "voteCount",
          "type": "uint256"
        }
      ],
      "stateMutability": "view",
      "type": "function",
      "constant": true
    },
    {
      "inputs": [],
      "name": "decimals",
      "outputs": [
        {
          "internalType": "uint8",
          "name": "",
          "type": "uint8"
        }
      ],
      "stateMutability": "view",
      "type": "function",
      "constant": true
    },
    {
      "inputs": [],
      "name": "endTime",
      "outputs": [
        {
          "internalType": "uint256",
          "name": "",
          "type": "uint256"
        }
      ],
      "stateMutability": "view",
      "type": "function",
      "constant": true
    },
    {
      "inputs": [],
      "name": "initialSupply",
      "outputs": [
        {
          "internalType": "uint256",
          "name": "",
          "type": "uint256"
        }
      ],
      "stateMutability": "view",
      "type": "function",
      "constant": true
    },
    {
      "inputs": [],
      "name": "isPaused",
      "outputs": [
        {
          "internalType": "bool",
          "name": "",
          "type": "bool"
        }
      ],
      "stateMutability": "view",
      "type": "function",
      "constant": true
    },
    {
      "inputs": [],
      "name": "name",
      "outputs": [
        {
          "internalType": "string",
          "name": "",
          "type": "string"
        }
      ],
      "stateMutability": "view",
      "type": "function",
      "constant": true
    },
    {
      "inputs": [],
      "name": "owner",
      "outputs": [
        {
          "internalType": "address",
          "name": "",
          "type": "address"
        }
      ],
      "stateMutability": "view",
      "type": "function",
      "constant": true
    },
    {
      "inputs": [],
      "name": "renounceOwnership",
      "outputs": [],
      "stateMutability": "nonpayable",
      "type": "function"
    },
    {
      "inputs": [],
      "name": "startTime",
      "outputs": [
        {
          "internalType": "uint256",
          "name": "",
          "type": "uint256"
        }
      ],
      "stateMutability": "view",
      "type": "function",
      "constant": true
    },
    {
      "inputs": [],
      "name": "symbol",
      "outputs": [
        {
          "internalType": "string",
          "name": "",
          "type": "string"
        }
      ],
      "stateMutability": "view",
      "type": "function",
      "constant": true
    },
    {
      "inputs": [],
      "name": "totalSupply",
      "outputs": [
        {
          "internalType": "uint256",
          "name": "",
          "type": "uint256"
        }
      ],
      "stateMutability": "view",
      "type": "function",
      "constant": true
    },
    {
      "inputs": [
        {
          "internalType": "address",
          "name": "to",
          "type": "address"
        },
        {
          "internalType": "uint256",
          "name": "value",
          "type": "uint256"
        }
      ],
      "name": "transfer",
      "outputs": [
        {
          "internalType": "bool",
          "name": "",
          "type": "bool"
        }
      ],
      "stateMutability": "nonpayable",
      "type": "function"
    },
    {
      "inputs": [
        {
          "internalType": "address",
          "name": "from",
          "type": "address"
        },
        {
          "internalType": "address",
          "name": "to",
          "type": "address"
        },
        {
          "internalType": "uint256",
          "name": "value",
          "type": "uint256"
        }
      ],
      "name": "transferFrom",
      "outputs": [
        {
          "internalType": "bool",
          "name": "",
          "type": "bool"
        }
      ],
      "stateMutability": "nonpayable",
      "type": "function"
    },
    {
      "inputs": [
        {
          "internalType": "address",
          "name": "newOwner",
          "type": "address"
        }
      ],
      "name": "transferOwnership",
      "outputs": [],
      "stateMutability": "nonpayable",
      "type": "function"
    },
    {
      "inputs": [],
      "name": "votePrice",
      "outputs": [
        {
          "internalType": "uint256",
          "name": "",
          "type": "uint256"
        }
      ],
      "stateMutability": "view",
      "type": "function",
      "constant": true
    },
    {
      "inputs": [
        {
          "internalType": "address",
          "name": "",
          "type": "address"
        }
      ],
      "name": "voters",
      "outputs": [
        {
          "internalType": "bool",
          "name": "",
          "type": "bool"
        }
      ],
      "stateMutability": "view",
      "type": "function",
      "constant": true
    },
    {
      "inputs": [
        {
          "internalType": "string",
          "name": "_name",
          "type": "string"
        },
        {
          "internalType": "string",
          "name": "_party",
          "type": "string"
        },
        {
          "internalType": "string",
          "name": "_description",
          "type": "string"
        }
      ],
      "name": "addCandidate",
      "outputs": [],
      "stateMutability": "nonpayable",
      "type": "function"
    },
    {
      "inputs": [
        {
          "internalType": "uint256",
          "name": "_candidateId",
          "type": "uint256"
        }
      ],
      "name": "vote",
      "outputs": [],
      "stateMutability": "nonpayable",
      "type": "function"
    },
    {
      "inputs": [],
      "name": "withdrawFunds",
      "outputs": [],
      "stateMutability": "nonpayable",
      "type": "function"
    },
    {
      "inputs": [],
      "name": "pauseVoting",
      "outputs": [],
      "stateMutability": "nonpayable",
      "type": "function"
    },
    {
      "inputs": [],
      "name": "resumeVoting",
      "outputs": [],
      "stateMutability": "nonpayable",
      "type": "function"
    },
    {
      "inputs": [
        {
          "internalType": "uint256",
          "name": "_candidateId",
          "type": "uint256"
        }
      ],
      "name": "getCandidate",
      "outputs": [
        {
          "components": [
            {
              "internalType": "string",
              "name": "name",
              "type": "string"
            },
            {
              "internalType": "string",
              "name": "party",
              "type": "string"
            },
            {
              "internalType": "string",
              "name": "description",
              "type": "string"
            },
            {
              "internalType": "uint256",
              "name": "voteCount",
              "type": "uint256"
            }
          ],
          "internalType": "struct Voting.Candidate",
          "name": "",
          "type": "tuple"
        }
      ],
      "stateMutability": "view",
      "type": "function",
      "constant": true
    },
    {
      "inputs": [],
      "name": "getTotalVotes",
      "outputs": [
        {
          "internalType": "uint256",
          "name": "",
          "type": "uint256"
        }
      ],
      "stateMutability": "view",
      "type": "function",
      "constant": true
    },
    {
      "inputs": [
        {
          "internalType": "address",
          "name": "_voter",
          "type": "address"
        }
      ],
      "name": "hasVoted",
      "outputs": [
        {
          "internalType": "bool",
          "name": "",
          "type": "bool"
        }
      ],
      "stateMutability": "view",
      "type": "function",
      "constant": true
    },
    {
      "inputs": [],
      "name": "isVotingActive",
      "outputs": [
        {
          "internalType": "bool",
          "name": "",
          "type": "bool"
        }
      ],
      "stateMutability": "view",
      "type": "function",
      "constant": true
    }
  ],
  "bytecode": "0x60806040526a084595161401484a000000600d5534801561001f57600080fd5b50336040518060400160405280600b81526020017f566f74696e67546f6b656e0000000000000000000000000000000000000000008152506040518060400160405280600281526020017f5654000000000000000000000000000000000000000000000000000000000000815250816003908161009c919061076b565b5080600490816100ac919061076b565b505050600073ffffffffffffffffffffffffffffffffffffffff168173ffffffffffffffffffffffffffffffffffffffff16036101215760006040517f1e4fbdf7000000000000000000000000000000000000000000000000000000008152600401610118919061087e565b60405180910390fd5b61013981610199640100000000026401000000009004565b50662386f26fc1000060068190555063672c8fa0600781905550636735ca206008819055506000600960006101000a81548160ff02191690831515021790555061019433600d5461025f640100000000026401000000009004565b61095d565b6000600560009054906101000a900473ffffffffffffffffffffffffffffffffffffffff16905081600560006101000a81548173ffffffffffffffffffffffffffffffffffffffff021916908373ffffffffffffffffffffffffffffffffffffffff1602179055508173ffffffffffffffffffffffffffffffffffffffff168173ffffffffffffffffffffffffffffffffffffffff167f8be0079c531659141344cd1fd0a4f28419497f9722a3daafe3b4186f6b6457e060405160405180910390a35050565b600073ffffffffffffffffffffffffffffffffffffffff168273ffffffffffffffffffffffffffffffffffffffff16036102d15760006040517fec442f050000000000000000000000000000000000000000000000000000000081526004016102c8919061087e565b60405180910390fd5b6102ec600083836102f0640100000000026401000000009004565b5050565b600073ffffffffffffffffffffffffffffffffffffffff168373ffffffffffffffffffffffffffffffffffffffff160361034257806002600082825461033691906108c8565b92505081905550610415565b60008060008573ffffffffffffffffffffffffffffffffffffffff1673ffffffffffffffffffffffffffffffffffffffff168152602001908152602001600020549050818110156103ce578381836040517fe450d38c0000000000000000000000000000000000000000000000000000000081526004016103c59392919061090b565b60405180910390fd5b8181036000808673ffffffffffffffffffffffffffffffffffffffff1673ffffffffffffffffffffffffffffffffffffffff16815260200190815260200160002081905550505b600073ffffffffffffffffffffffffffffffffffffffff168273ffffffffffffffffffffffffffffffffffffffff160361045e57806002600082825403925050819055506104ab565b806000808473ffffffffffffffffffffffffffffffffffffffff1673ffffffffffffffffffffffffffffffffffffffff168152602001908152602001600020600082825401925050819055505b8173ffffffffffffffffffffffffffffffffffffffff168373ffffffffffffffffffffffffffffffffffffffff167fddf252ad1be2c89b69c2b068fc378daa952ba7f163c4a11628f55a4df523b3ef836040516105089190610942565b60405180910390a3505050565b600081519050919050565b7f4e487b7100000000000000000000000000000000000000000000000000000000600052604160045260246000fd5b7f4e487b7100000000000000000000000000000000000000000000000000000000600052602260045260246000fd5b6000600282049050600182168061059657607f821691505b6020821081036105a9576105a861054f565b5b50919050565b60008190508160005260206000209050919050565b60006020601f8301049050919050565b60008160020a8302905092915050565b6000600883026106147fffffffffffffffffffffffffffffffffffffffffffffffffffffffffffffffff826105d4565b61061e86836105d4565b95508019841693508086168417925050509392505050565b6000819050919050565b6000819050919050565b600061066561066061065b84610636565b610640565b610636565b9050919050565b6000819050919050565b61067f8361064a565b61069361068b8261066c565b8484546105e4565b825550505050565b600090565b6106a861069b565b6106b3818484610676565b505050565b5b818110156106d7576106cc6000826106a0565b6001810190506106b9565b5050565b601f82111561071c576106ed816105af565b6106f6846105c4565b81016020851015610705578190505b610719610711856105c4565b8301826106b8565b50505b505050565b60008160020a8304905092915050565b600061074260001984600802610721565b1980831691505092915050565b600061075b8383610731565b9150826002028217905092915050565b61077482610515565b67ffffffffffffffff81111561078d5761078c610520565b5b610797825461057e565b6107a28282856106db565b600060209050601f8311600181146107d557600084156107c3578287015190505b6107cd858261074f565b865550610835565b601f1984166107e3866105af565b60005b8281101561080b578489015182556001820191506020850194506020810190506107e6565b868310156108285784890151610824601f891682610731565b8355505b6001600288020188555050505b505050505050565b600073ffffffffffffffffffffffffffffffffffffffff82169050919050565b60006108688261083d565b9050919050565b6108788161085d565b82525050565b6000602082019050610893600083018461086f565b92915050565b7f4e487b7100000000000000000000000000000000000000000000000000000000600052601160045260246000fd5b60006108d382610636565b91506108de83610636565b92508282019050808211156108f6576108f5610899565b5b92915050565b61090581610636565b82525050565b6000606082019050610920600083018661086f565b61092d60208301856108fc565b61093a60408301846108fc565b949350505050565b600060208201905061095760008301846108fc565b92915050565b6129528061096c6000396000f3fe608060405234801561001057600080fd5b50600436106101ec576000357c010000000000000000000000000000000000000000000000000000000090048063715018a611610121578063a3ec138d116100bf578063b187bd261161008e578063b187bd2614610532578063dd62ed3e14610550578063f2fde38b14610580578063f3cdcd1e1461059c576101ec565b8063a3ec138d14610498578063a9059cbb146104c8578063a9a981a3146104f8578063ad71f8dc14610516576101ec565b8063860c851a116100fb578063860c851a146104205780638da5cb5b1461043e57806395d89b411461045c5780639a0e7d661461047a576101ec565b8063715018a6146103ee57806378e97925146103f85780637afdf93e14610416576101ec565b8063313ce5671161018e57806335b8e8201161016857806335b8e82014610352578063378dc3dc1461038257806347cf6f76146103a057806370a08231146103be576101ec565b8063313ce567146102e35780633197cbb6146103015780633477ee2e1461031f576101ec565b806309eef43e116101ca57806309eef43e1461025b57806318160ddd1461028b57806323b872dd146102a957806324600fc3146102d9576101ec565b80630121b93f146101f157806306fdde031461020d578063095ea7b31461022b575b600080fd5b61020b60048036038101906102069190611ba4565b6105a6565b005b610215610825565b6040516102229190611c61565b60405180910390f35b61024560048036038101906102409190611ce1565b6108b7565b6040516102529190611d3c565b60405180910390f35b61027560048036038101906102709190611d57565b6108da565b6040516102829190611d3c565b60405180910390f35b610293610930565b6040516102a09190611d93565b60405180910390f35b6102c360048036038101906102be9190611dae565b61093a565b6040516102d09190611d3c565b60405180910390f35b6102e1610969565b005b6102eb610a75565b6040516102f89190611e1d565b60405180910390f35b610309610a7e565b6040516103169190611d93565b60405180910390f35b61033960048036038101906103349190611ba4565b610a84565b6040516103499493929190611e38565b60405180910390f35b61036c60048036038101906103679190611ba4565b610c4c565b6040516103799190611f5c565b60405180910390f35b61038a610e7d565b6040516103979190611d93565b60405180910390f35b6103a8610e83565b6040516103b59190611d3c565b60405180910390f35b6103d860048036038101906103d39190611d57565b610e9e565b6040516103e59190611d93565b60405180910390f35b6103f6610ee6565b005b610400610efa565b60405161040d9190611d93565b60405180910390f35b61041e610f00565b005b610428610fbe565b6040516104359190611d93565b60405180910390f35b610446610fc4565b6040516104539190611f8d565b60405180910390f35b610464610fee565b6040516104719190611c61565b60405180910390f35b610482611080565b60405161048f9190611d93565b60405180910390f35b6104b260048036038101906104ad9190611d57565b6110cd565b6040516104bf9190611d3c565b60405180910390f35b6104e260048036038101906104dd9190611ce1565b6110ed565b6040516104ef9190611d3c565b60405180910390f35b610500611110565b60405161050d9190611d93565b60405180910390f35b610530600480360381019061052b91906120dd565b611116565b005b61053a611269565b6040516105479190611d3c565b60405180910390f35b61056a60048036038101906105659190612184565b61127c565b6040516105779190611d93565b60405180910390f35b61059a60048036038101906105959190611d57565b611303565b005b6105a4611389565b005b600c60003373ffffffffffffffffffffffffffffffffffffffff1673ffffffffffffffffffffffffffffffffffffffff16815260200190815260200160002060009054906101000a900460ff1615610633576040517f08c379a000000000000000000000000000000000000000000000000000000000815260040161062a90612210565b60405180910390fd5b600754421015801561064757506008544211155b610686576040517f08c379a000000000000000000000000000000000000000000000000000000000815260040161067d9061227c565b60405180910390fd5b600960009054906101000a900460ff16156106d6576040517f08c379a00000000000000000000000000000000000000000000000000000000081526004016106cd906122e8565b60405180910390fd5b600b54811061071a576040517f08c379a000000000000000000000000000000000000000000000000000000000815260040161071190612354565b60405180910390fd5b610726306006546110ed565b610765576040517f08c379a000000000000000000000000000000000000000000000000000000000815260040161075c906123c0565b60405180910390fd5b600a6000828152602001908152602001600020600301600081548092919061078c9061240f565b91905055506001600c60003373ffffffffffffffffffffffffffffffffffffffff1673ffffffffffffffffffffffffffffffffffffffff16815260200190815260200160002060006101000a81548160ff0219169083151502179055507fd8d46ecf72f6103ff400e47d1b5fdfe248d4ca34a4acd39f63fbe903c8f7e7bd813360405161081a929190612457565b60405180910390a150565b606060038054610834906124af565b80601f0160208091040260200160405190810160405280929190818152602001828054610860906124af565b80156108ad5780601f10610882576101008083540402835291602001916108ad565b820191906000526020600020905b81548152906001019060200180831161089057829003601f168201915b5050505050905090565b6000806108c2611447565b90506108cf81858561144f565b600191505092915050565b6000600c60008373ffffffffffffffffffffffffffffffffffffffff1673ffffffffffffffffffffffffffffffffffffffff16815260200190815260200160002060009054906101000a900460ff169050919050565b6000600254905090565b600080610945611447565b9050610952858285611461565b61095d8585856114f5565b60019150509392505050565b610971610fc4565b73ffffffffffffffffffffffffffffffffffffffff163373ffffffffffffffffffffffffffffffffffffffff16146109de576040517f08c379a00000000000000000000000000000000000000000000000000000000081526004016109d59061252c565b60405180910390fd5b60006109e930610e9e565b905060008111610a2e576040517f08c379a0000000000000000000000000000000000000000000000000000000008152600401610a2590612598565b60405180910390fd5b610a393033836114f5565b7feaff4b37086828766ad3268786972c0cd24259d4c87a80f9d3963a3c3d999b0d3382604051610a6a9291906125b8565b60405180910390a150565b60006012905090565b60085481565b600a602052806000526040600020600091509050806000018054610aa7906124af565b80601f0160208091040260200160405190810160405280929190818152602001828054610ad3906124af565b8015610b205780601f10610af557610100808354040283529160200191610b20565b820191906000526020600020905b815481529060010190602001808311610b0357829003601f168201915b505050505090806001018054610b35906124af565b80601f0160208091040260200160405190810160405280929190818152602001828054610b61906124af565b8015610bae5780601f10610b8357610100808354040283529160200191610bae565b820191906000526020600020905b815481529060010190602001808311610b9157829003601f168201915b505050505090806002018054610bc3906124af565b80601f0160208091040260200160405190810160405280929190818152602001828054610bef906124af565b8015610c3c5780601f10610c1157610100808354040283529160200191610c3c565b820191906000526020600020905b815481529060010190602001808311610c1f57829003601f168201915b5050505050908060030154905084565b610c54611b32565b600b548210610c98576040517f08c379a0000000000000000000000000000000000000000000000000000000008152600401610c8f90612354565b60405180910390fd5b600a6000838152602001908152602001600020604051806080016040529081600082018054610cc6906124af565b80601f0160208091040260200160405190810160405280929190818152602001828054610cf2906124af565b8015610d3f5780601f10610d1457610100808354040283529160200191610d3f565b820191906000526020600020905b815481529060010190602001808311610d2257829003601f168201915b50505050508152602001600182018054610d58906124af565b80601f0160208091040260200160405190810160405280929190818152602001828054610d84906124af565b8015610dd15780601f10610da657610100808354040283529160200191610dd1565b820191906000526020600020905b815481529060010190602001808311610db457829003601f168201915b50505050508152602001600282018054610dea906124af565b80601f0160208091040260200160405190810160405280929190818152602001828054610e16906124af565b8015610e635780601f10610e3857610100808354040283529160200191610e63565b820191906000526020600020905b815481529060010190602001808311610e4657829003601f168201915b505050505081526020016003820154815250509050919050565b600d5481565b60006007544210158015610e9957506008544211155b905090565b60008060008373ffffffffffffffffffffffffffffffffffffffff1673ffffffffffffffffffffffffffffffffffffffff168152602001908152602001600020549050919050565b610eee6115e9565b610ef86000611670565b565b60075481565b610f08610fc4565b73ffffffffffffffffffffffffffffffffffffffff163373ffffffffffffffffffffffffffffffffffffffff1614610f75576040517f08c379a0000000000000000000000000000000000000000000000000000000008152600401610f6c9061252c565b60405180910390fd5b6000600960006101000a81548160ff0219169083151502179055507f8f69ef9279bfb1fe5f4f75790947a23fa88774e98242b966bcaaf7d25e8b3c1660405160405180910390a1565b60065481565b6000600560009054906101000a900473ffffffffffffffffffffffffffffffffffffffff16905090565b606060048054610ffd906124af565b80601f0160208091040260200160405190810160405280929190818152602001828054611029906124af565b80156110765780601f1061104b57610100808354040283529160200191611076565b820191906000526020600020905b81548152906001019060200180831161105957829003601f168201915b5050505050905090565b6000806000905060005b600b548110156110c557600a600082815260200190815260200160002060030154826110b691906125e1565b9150808060010191505061108a565b508091505090565b600c6020528060005260406000206000915054906101000a900460ff1681565b6000806110f8611447565b90506111058185856114f5565b600191505092915050565b600b5481565b61111e610fc4565b73ffffffffffffffffffffffffffffffffffffffff163373ffffffffffffffffffffffffffffffffffffffff161461118b576040517f08c379a00000000000000000000000000000000000000000000000000000000081526004016111829061252c565b60405180910390fd5b60405180608001604052808481526020018381526020018281526020016000815250600a6000600b54815260200190815260200160002060008201518160000190816111d791906127c7565b5060208201518160010190816111ed91906127c7565b50604082015181600201908161120391906127c7565b50606082015181600301559050507fa620e116e8168f7281127a47ac04518b6fbd8b07cd150397e6e3e56127ce48cf83838360405161124493929190612899565b60405180910390a1600b600081548092919061125f9061240f565b9190505550505050565b600960009054906101000a900460ff1681565b6000600160008473ffffffffffffffffffffffffffffffffffffffff1673ffffffffffffffffffffffffffffffffffffffff16815260200190815260200160002060008373ffffffffffffffffffffffffffffffffffffffff1673ffffffffffffffffffffffffffffffffffffffff16815260200190815260200160002054905092915050565b61130b6115e9565b600073ffffffffffffffffffffffffffffffffffffffff168173ffffffffffffffffffffffffffffffffffffffff160361137d5760006040517f1e4fbdf70000000000000000000000000000000000000000000000000000000081526004016113749190611f8d565b60405180910390fd5b61138681611670565b50565b611391610fc4565b73ffffffffffffffffffffffffffffffffffffffff163373ffffffffffffffffffffffffffffffffffffffff16146113fe576040517f08c379a00000000000000000000000000000000000000000000000000000000081526004016113f59061252c565b60405180910390fd5b6001600960006101000a81548160ff0219169083151502179055507f20c53179fe7c6306d9d1c279d52bae5e736f5e1178137542d3a7a9d1752691be60405160405180910390a1565b600033905090565b61145c8383836001611736565b505050565b600061146d848461127c565b90507fffffffffffffffffffffffffffffffffffffffffffffffffffffffffffffffff81146114ef57818110156114df578281836040517ffb8f41b20000000000000000000000000000000000000000000000000000000081526004016114d6939291906128e5565b60405180910390fd5b6114ee84848484036000611736565b5b50505050565b600073ffffffffffffffffffffffffffffffffffffffff168373ffffffffffffffffffffffffffffffffffffffff16036115675760006040517f96c6fd1e00000000000000000000000000000000000000000000000000000000815260040161155e9190611f8d565b60405180910390fd5b600073ffffffffffffffffffffffffffffffffffffffff168273ffffffffffffffffffffffffffffffffffffffff16036115d95760006040517fec442f050000000000000000000000000000000000000000000000000000000081526004016115d09190611f8d565b60405180910390fd5b6115e483838361190d565b505050565b6115f1611447565b73ffffffffffffffffffffffffffffffffffffffff1661160f610fc4565b73ffffffffffffffffffffffffffffffffffffffff161461166e57611632611447565b6040517f118cdaa70000000000000000000000000000000000000000000000000000000081526004016116659190611f8d565b60405180910390fd5b565b6000600560009054906101000a900473ffffffffffffffffffffffffffffffffffffffff16905081600560006101000a81548173ffffffffffffffffffffffffffffffffffffffff021916908373ffffffffffffffffffffffffffffffffffffffff1602179055508173ffffffffffffffffffffffffffffffffffffffff168173ffffffffffffffffffffffffffffffffffffffff167f8be0079c531659141344cd1fd0a4f28419497f9722a3daafe3b4186f6b6457e060405160405180910390a35050565b600073ffffffffffffffffffffffffffffffffffffffff168473ffffffffffffffffffffffffffffffffffffffff16036117a85760006040517fe602df0500000000000000000000000000000000000000000000000000000000815260040161179f9190611f8d565b60405180910390fd5b600073ffffffffffffffffffffffffffffffffffffffff168373ffffffffffffffffffffffffffffffffffffffff160361181a5760006040517f94280d620000000000000000000000000000000000000000000000000000000081526004016118119190611f8d565b60405180910390fd5b81600160008673ffffffffffffffffffffffffffffffffffffffff1673ffffffffffffffffffffffffffffffffffffffff16815260200190815260200160002060008573ffffffffffffffffffffffffffffffffffffffff1673ffffffffffffffffffffffffffffffffffffffff168152602001908152602001600020819055508015611907578273ffffffffffffffffffffffffffffffffffffffff168473ffffffffffffffffffffffffffffffffffffffff167f8c5be1e5ebec7d5bd14f71427d1e84f3dd0314c0f7b2291e5b200ac8c7c3b925846040516118fe9190611d93565b60405180910390a35b50505050565b600073ffffffffffffffffffffffffffffffffffffffff168373ffffffffffffffffffffffffffffffffffffffff160361195f57806002600082825461195391906125e1565b92505081905550611a32565b60008060008573ffffffffffffffffffffffffffffffffffffffff1673ffffffffffffffffffffffffffffffffffffffff168152602001908152602001600020549050818110156119eb578381836040517fe450d38c0000000000000000000000000000000000000000000000000000000081526004016119e2939291906128e5565b60405180910390fd5b8181036000808673ffffffffffffffffffffffffffffffffffffffff1673ffffffffffffffffffffffffffffffffffffffff16815260200190815260200160002081905550505b600073ffffffffffffffffffffffffffffffffffffffff168273ffffffffffffffffffffffffffffffffffffffff1603611a7b5780600260008282540392505081905550611ac8565b806000808473ffffffffffffffffffffffffffffffffffffffff1673ffffffffffffffffffffffffffffffffffffffff168152602001908152602001600020600082825401925050819055505b8173ffffffffffffffffffffffffffffffffffffffff168373ffffffffffffffffffffffffffffffffffffffff167fddf252ad1be2c89b69c2b068fc378daa952ba7f163c4a11628f55a4df523b3ef83604051611b259190611d93565b60405180910390a3505050565b6040518060800160405280606081526020016060815260200160608152602001600081525090565b6000604051905090565b600080fd5b600080fd5b6000819050919050565b611b8181611b6e565b8114611b8c57600080fd5b50565b600081359050611b9e81611b78565b92915050565b600060208284031215611bba57611bb9611b64565b5b6000611bc884828501611b8f565b91505092915050565b600081519050919050565b600082825260208201905092915050565b60005b83811015611c0b578082015181840152602081019050611bf0565b60008484015250505050565b6000601f19601f8301169050919050565b6000611c3382611bd1565b611c3d8185611bdc565b9350611c4d818560208601611bed565b611c5681611c17565b840191505092915050565b60006020820190508181036000830152611c7b8184611c28565b905092915050565b600073ffffffffffffffffffffffffffffffffffffffff82169050919050565b6000611cae82611c83565b9050919050565b611cbe81611ca3565b8114611cc957600080fd5b50565b600081359050611cdb81611cb5565b92915050565b60008060408385031215611cf857611cf7611b64565b5b6000611d0685828601611ccc565b9250506020611d1785828601611b8f565b9150509250929050565b60008115159050919050565b611d3681611d21565b82525050565b6000602082019050611d516000830184611d2d565b92915050565b600060208284031215611d6d57611d6c611b64565b5b6000611d7b84828501611ccc565b91505092915050565b611d8d81611b6e565b82525050565b6000602082019050611da86000830184611d84565b92915050565b600080600060608486031215611dc757611dc6611b64565b5b6000611dd586828701611ccc565b9350506020611de686828701611ccc565b9250506040611df786828701611b8f565b9150509250925092565b600060ff82169050919050565b611e1781611e01565b82525050565b6000602082019050611e326000830184611e0e565b92915050565b60006080820190508181036000830152611e528187611c28565b90508181036020830152611e668186611c28565b90508181036040830152611e7a8185611c28565b9050611e896060830184611d84565b95945050505050565b600082825260208201905092915050565b6000611eae82611bd1565b611eb88185611e92565b9350611ec8818560208601611bed565b611ed181611c17565b840191505092915050565b611ee581611b6e565b82525050565b60006080830160008301518482036000860152611f088282611ea3565b91505060208301518482036020860152611f228282611ea3565b91505060408301518482036040860152611f3c8282611ea3565b9150506060830151611f516060860182611edc565b508091505092915050565b60006020820190508181036000830152611f768184611eeb565b905092915050565b611f8781611ca3565b82525050565b6000602082019050611fa26000830184611f7e565b92915050565b600080fd5b600080fd5b7f4e487b7100000000000000000000000000000000000000000000000000000000600052604160045260246000fd5b611fea82611c17565b810181811067ffffffffffffffff8211171561200957612008611fb2565b5b80604052505050565b600061201c611b5a565b90506120288282611fe1565b919050565b600067ffffffffffffffff82111561204857612047611fb2565b5b61205182611c17565b9050602081019050919050565b82818337600083830152505050565b600061208061207b8461202d565b612012565b90508281526020810184848401111561209c5761209b611fad565b5b6120a784828561205e565b509392505050565b600082601f8301126120c4576120c3611fa8565b5b81356120d484826020860161206d565b91505092915050565b6000806000606084860312156120f6576120f5611b64565b5b600084013567ffffffffffffffff81111561211457612113611b69565b5b612120868287016120af565b935050602084013567ffffffffffffffff81111561214157612140611b69565b5b61214d868287016120af565b925050604084013567ffffffffffffffff81111561216e5761216d611b69565b5b61217a868287016120af565b9150509250925092565b6000806040838503121561219b5761219a611b64565b5b60006121a985828601611ccc565b92505060206121ba85828601611ccc565b9150509250929050565b7f596f75206861766520616c726561647920766f7465642e000000000000000000600082015250565b60006121fa601783611bdc565b9150612205826121c4565b602082019050919050565b60006020820190508181036000830152612229816121ed565b9050919050565b7f566f74696e6720706572696f64206973206e6f74206163746976652e00000000600082015250565b6000612266601c83611bdc565b915061227182612230565b602082019050919050565b6000602082019050818103600083015261229581612259565b9050919050565b7f566f74696e67206973207061757365642e000000000000000000000000000000600082015250565b60006122d2601183611bdc565b91506122dd8261229c565b602082019050919050565b60006020820190508181036000830152612301816122c5565b9050919050565b7f496e76616c69642063616e6469646174652049442e0000000000000000000000600082015250565b600061233e601583611bdc565b915061234982612308565b602082019050919050565b6000602082019050818103600083015261236d81612331565b9050919050565b7f546f6b656e207472616e73666572206661696c65640000000000000000000000600082015250565b60006123aa601583611bdc565b91506123b582612374565b602082019050919050565b600060208201905081810360008301526123d98161239d565b9050919050565b7f4e487b7100000000000000000000000000000000000000000000000000000000600052601160045260246000fd5b600061241a82611b6e565b91507fffffffffffffffffffffffffffffffffffffffffffffffffffffffffffffffff820361244c5761244b6123e0565b5b600182019050919050565b600060408201905061246c6000830185611d84565b6124796020830184611f7e565b9392505050565b7f4e487b7100000000000000000000000000000000000000000000000000000000600052602260045260246000fd5b600060028204905060018216806124c757607f821691505b6020821081036124da576124d9612480565b5b50919050565b7f596f7520617265206e6f74207468652061646d696e2e00000000000000000000600082015250565b6000612516601683611bdc565b9150612521826124e0565b602082019050919050565b6000602082019050818103600083015261254581612509565b9050919050565b7f4e6f2066756e647320746f2077697468647261772e0000000000000000000000600082015250565b6000612582601583611bdc565b915061258d8261254c565b602082019050919050565b600060208201905081810360008301526125b181612575565b9050919050565b60006040820190506125cd6000830185611f7e565b6125da6020830184611d84565b9392505050565b60006125ec82611b6e565b91506125f783611b6e565b925082820190508082111561260f5761260e6123e0565b5b92915050565b60008190508160005260206000209050919050565b60006020601f8301049050919050565b60008160020a8302905092915050565b60006008830261267a7fffffffffffffffffffffffffffffffffffffffffffffffffffffffffffffffff8261263a565b612684868361263a565b95508019841693508086168417925050509392505050565b6000819050919050565b60006126c16126bc6126b784611b6e565b61269c565b611b6e565b9050919050565b6000819050919050565b6126db836126a6565b6126ef6126e7826126c8565b84845461264a565b825550505050565b600090565b6127046126f7565b61270f8184846126d2565b505050565b5b81811015612733576127286000826126fc565b600181019050612715565b5050565b601f8211156127785761274981612615565b6127528461262a565b81016020851015612761578190505b61277561276d8561262a565b830182612714565b50505b505050565b60008160020a8304905092915050565b600061279e6000198460080261277d565b1980831691505092915050565b60006127b7838361278d565b9150826002028217905092915050565b6127d082611bd1565b67ffffffffffffffff8111156127e9576127e8611fb2565b5b6127f382546124af565b6127fe828285612737565b600060209050601f831160018114612831576000841561281f578287015190505b61282985826127ab565b865550612891565b601f19841661283f86612615565b60005b8281101561286757848901518255600182019150602085019450602081019050612842565b868310156128845784890151612880601f89168261278d565b8355505b6001600288020188555050505b505050505050565b600060608201905081810360008301526128b38186611c28565b905081810360208301526128c78185611c28565b905081810360408301526128db8184611c28565b9050949350505050565b60006060820190506128fa6000830186611f7e565b6129076020830185611d84565b6129146040830184611d84565b94935050505056fea26469706673582212208f644f2d2ccdedcec677182e7cef54e9d52a895e73d7647f3b2f32b578ccdc5664736f6c634300081c0033",
  "immutableReferences": {},
  "source": "// SPDX-License-Identifier: MIT\r\npragma solidity ^0.8.0;\r\n\r\nimport \"@openzeppelin/contracts/token/ERC20/ERC20.sol\";\r\nimport \"@openzeppelin/contracts/access/Ownable.sol\";\r\n\r\ncontract Voting is ERC20, Ownable {\r\n    uint256 public votePrice; // Price of one vote in token units\r\n\r\n    uint256 public startTime; // Voting start time\r\n    uint256 public endTime;   // Voting end time\r\n\r\n    bool public isPaused; // Pause flag\r\n\r\n    struct Candidate {\r\n        string name;\r\n        string party;\r\n        string description;\r\n        uint256 voteCount;\r\n    }\r\n\r\n    // Mapping to store candidates by ID\r\n    mapping(uint256 => Candidate) public candidates;\r\n    uint256 public candidateCount;\r\n\r\n    // Mapping to keep track of voters\r\n    mapping(address => bool) public voters;\r\n\r\n    // Events to log actions\r\n    event CandidateAdded(string name, string party, string description);\r\n    event VoteCasted(uint256 candidateId, address voter);\r\n    event FundsWithdrawn(address admin, uint256 amount);\r\n    event VotingPaused();\r\n    event VotingResumed();\r\n\r\n    // Modifier to ensure that only admin can execute the function\r\n    modifier onlyAdmin() {\r\n        require(msg.sender == owner(), \"You are not the admin.\");\r\n        _;\r\n    }\r\n\r\n    modifier onlyWhenNotPaused() {\r\n        require(!isPaused, \"Voting is paused.\");\r\n        _;\r\n    }\r\n\r\n    modifier onlyDuringVotingPeriod() {\r\n        require(block.timestamp >= startTime && block.timestamp <= endTime, \"Voting period is not active.\");\r\n        _;\r\n    }\r\n\r\n    modifier hasNotVoted() {\r\n        require(!voters[msg.sender], \"You have already voted.\");\r\n        _;\r\n    }\r\n    uint256 public initialSupply = 10000000 * 10 ** 18;\r\n\r\n    // Constructor to initialize the contract with the vote price and voting period\r\n    constructor() ERC20(\"VotingToken\", \"VT\") Ownable(msg.sender) {\r\n        \r\n        votePrice = 0.01 * 10 ** 18;\r\n        startTime = 1730973600;\r\n        endTime = 1731578400;\r\n        isPaused = false;\r\n\r\n        _mint(msg.sender, initialSupply); // Mint initial supply to contract deployer\r\n    }\r\n\r\n    // Function to add a new candidate (only accessible by the admin)\r\n    function addCandidate(\r\n        string memory _name, \r\n        string memory _party, \r\n        string memory _description\r\n    ) public onlyAdmin {\r\n        candidates[candidateCount] = Candidate(_name, _party, _description, 0);\r\n        emit CandidateAdded(_name, _party, _description);\r\n        candidateCount++;\r\n    }\r\n\r\n    // Function to cast a vote for a specific candidate\r\n    function vote(uint256 _candidateId) public hasNotVoted onlyDuringVotingPeriod onlyWhenNotPaused {\r\n        require(_candidateId < candidateCount, \"Invalid candidate ID.\");\r\n\r\n        // Transfer the voting tokens to the contract for voting\r\n        require(\r\n            transfer(address(this), votePrice),\r\n            \"Token transfer failed\"\r\n        );\r\n\r\n        // Increment the vote count for the selected candidate\r\n        candidates[_candidateId].voteCount++;\r\n        voters[msg.sender] = true;\r\n\r\n        emit VoteCasted(_candidateId, msg.sender);\r\n    }\r\n\r\n    // Function to withdraw collected tokens (only accessible by the admin)\r\n    function withdrawFunds() public onlyAdmin {\r\n        uint256 balance = balanceOf(address(this));\r\n        require(balance > 0, \"No funds to withdraw.\");\r\n        _transfer(address(this), msg.sender, balance);\r\n\r\n        emit FundsWithdrawn(msg.sender, balance);\r\n    }\r\n\r\n    // Function to pause voting (only accessible by admin)\r\n    function pauseVoting() public onlyAdmin {\r\n        isPaused = true;\r\n        emit VotingPaused();\r\n    }\r\n\r\n    // Function to resume voting (only accessible by admin)\r\n    function resumeVoting() public onlyAdmin {\r\n        isPaused = false;\r\n        emit VotingResumed();\r\n    }\r\n\r\n    // Function to get candidate details\r\n    function getCandidate(uint256 _candidateId) public view returns (Candidate memory) {\r\n        require(_candidateId < candidateCount, \"Invalid candidate ID.\");\r\n        return candidates[_candidateId];\r\n    }\r\n\r\n    // Function to get the total number of votes casted\r\n    function getTotalVotes() public view returns (uint256) {\r\n        uint256 totalVotes = 0;\r\n        for (uint256 i = 0; i < candidateCount; i++) {\r\n            totalVotes += candidates[i].voteCount;\r\n        }\r\n        return totalVotes;\r\n    }\r\n\r\n    // Function to check whether an address has voted\r\n    function hasVoted(address _voter) public view returns (bool) {\r\n        return voters[_voter];\r\n    }\r\n\r\n    // Function to check if voting is currently active\r\n    function isVotingActive() public view returns (bool) {\r\n        return block.timestamp >= startTime && block.timestamp <= endTime;\r\n    }\r\n}\r\n",
  "sourcePath": "C:\\Users\\ngawa\\OneDrive\\Desktop\\12220047 individual work\\contracts\\Voting.sol",
  "compiler": {
    "name": "solc",
    "version": "0.8.28+commit.7893614a.Emscripten.clang"
  },
  "schemaVersion": "3.4.16",
  "updatedAt": "2024-11-13T10:04:26.023Z",
  "networkType": "ethereum",
  "devdoc": {
    "errors": {
      "ERC20InsufficientAllowance(address,uint256,uint256)": [
        {
          "details": "Indicates a failure with the `spender`s `allowance`. Used in transfers.",
          "params": {
            "allowance": "Amount of tokens a `spender` is allowed to operate with.",
            "needed": "Minimum amount required to perform a transfer.",
            "spender": "Address that may be allowed to operate on tokens without being their owner."
          }
        }
      ],
      "ERC20InsufficientBalance(address,uint256,uint256)": [
        {
          "details": "Indicates an error related to the current `balance` of a `sender`. Used in transfers.",
          "params": {
            "balance": "Current balance for the interacting account.",
            "needed": "Minimum amount required to perform a transfer.",
            "sender": "Address whose tokens are being transferred."
          }
        }
      ],
      "ERC20InvalidApprover(address)": [
        {
          "details": "Indicates a failure with the `approver` of a token to be approved. Used in approvals.",
          "params": {
            "approver": "Address initiating an approval operation."
          }
        }
      ],
      "ERC20InvalidReceiver(address)": [
        {
          "details": "Indicates a failure with the token `receiver`. Used in transfers.",
          "params": {
            "receiver": "Address to which tokens are being transferred."
          }
        }
      ],
      "ERC20InvalidSender(address)": [
        {
          "details": "Indicates a failure with the token `sender`. Used in transfers.",
          "params": {
            "sender": "Address whose tokens are being transferred."
          }
        }
      ],
      "ERC20InvalidSpender(address)": [
        {
          "details": "Indicates a failure with the `spender` to be approved. Used in approvals.",
          "params": {
            "spender": "Address that may be allowed to operate on tokens without being their owner."
          }
        }
      ],
      "OwnableInvalidOwner(address)": [
        {
          "details": "The owner is not a valid owner account. (eg. `address(0)`)"
        }
      ],
      "OwnableUnauthorizedAccount(address)": [
        {
          "details": "The caller account is not authorized to perform an operation."
        }
      ]
    },
    "events": {
      "Approval(address,address,uint256)": {
        "details": "Emitted when the allowance of a `spender` for an `owner` is set by a call to {approve}. `value` is the new allowance."
      },
      "Transfer(address,address,uint256)": {
        "details": "Emitted when `value` tokens are moved from one account (`from`) to another (`to`). Note that `value` may be zero."
      }
    },
    "kind": "dev",
    "methods": {
      "allowance(address,address)": {
        "details": "See {IERC20-allowance}."
      },
      "approve(address,uint256)": {
        "details": "See {IERC20-approve}. NOTE: If `value` is the maximum `uint256`, the allowance is not updated on `transferFrom`. This is semantically equivalent to an infinite approval. Requirements: - `spender` cannot be the zero address."
      },
      "balanceOf(address)": {
        "details": "See {IERC20-balanceOf}."
      },
      "decimals()": {
        "details": "Returns the number of decimals used to get its user representation. For example, if `decimals` equals `2`, a balance of `505` tokens should be displayed to a user as `5.05` (`505 / 10 ** 2`). Tokens usually opt for a value of 18, imitating the relationship between Ether and Wei. This is the default value returned by this function, unless it's overridden. NOTE: This information is only used for _display_ purposes: it in no way affects any of the arithmetic of the contract, including {IERC20-balanceOf} and {IERC20-transfer}."
      },
      "name()": {
        "details": "Returns the name of the token."
      },
      "owner()": {
        "details": "Returns the address of the current owner."
      },
      "renounceOwnership()": {
        "details": "Leaves the contract without owner. It will not be possible to call `onlyOwner` functions. Can only be called by the current owner. NOTE: Renouncing ownership will leave the contract without an owner, thereby disabling any functionality that is only available to the owner."
      },
      "symbol()": {
        "details": "Returns the symbol of the token, usually a shorter version of the name."
      },
      "totalSupply()": {
        "details": "See {IERC20-totalSupply}."
      },
      "transfer(address,uint256)": {
        "details": "See {IERC20-transfer}. Requirements: - `to` cannot be the zero address. - the caller must have a balance of at least `value`."
      },
      "transferFrom(address,address,uint256)": {
        "details": "See {IERC20-transferFrom}. Skips emitting an {Approval} event indicating an allowance update. This is not required by the ERC. See {xref-ERC20-_approve-address-address-uint256-bool-}[_approve]. NOTE: Does not update the allowance if the current allowance is the maximum `uint256`. Requirements: - `from` and `to` cannot be the zero address. - `from` must have a balance of at least `value`. - the caller must have allowance for ``from``'s tokens of at least `value`."
      },
      "transferOwnership(address)": {
        "details": "Transfers ownership of the contract to a new account (`newOwner`). Can only be called by the current owner."
      }
    },
    "version": 1
  },
  "userdoc": {
    "kind": "user",
    "methods": {},
    "version": 1
  }
}